:100000000C9463000C948B000C948B000C948B006C
:100010000C948B000C948B000C948B000C948B0034
:100020000C948B000C948B000C948B000C948B0024
:100030000C948B000C948B000C948B000C948B0014
:100040000C943D020C948B000C9428050C947605BE
:100050000C948B000C948B000C948B000C948B00F4
:100060000C948B000C948B000000000024002700EF
:100070002A0000000000250028002B0000000000DE
:1000800023002600290004040404040404040202DA
:100090000202020203030303030301020408102007
:1000A0004080010204081020010204081020000012
:1000B0000007000201000003040600000000000029
:1000C00000008D00E20611241FBECFEFD8E0DEBF96
:1000D000CDBF11E0A0E0B1E0ECE3F0E102C005909B
:1000E0000D92A831B107D9F711E0A8E1B1E001C044
:1000F0001D92AF3CB107E1F710E0C6ECD0E004C0C0
:100100002297FE010E941808C23CD107C9F70E943D
:1001100038070C941C080C94000088E191E063E01F
:1001200070E042E050E00E941E02089583E060E02B
:100130000E94A50382E061E00E94A50368E873E1E4
:1001400080E090E00E948502809100019091010181
:10015000089790930101809300018DEA91E040E0BF
:1001600052EC61E070E00E94B1050895AF92BF9239
:10017000CF92DF92EF92FF920F931F930E9423037F
:1001800000D000D0AA2797FDA095BA2F2EEF31E01E
:1001900040E050E0EDB7FEB72183328343835483C0
:1001A000BC01CD0120E030E040E050E0EFEFEE2E6A
:1001B000E3E0FE2E012D112DAA24BB2465010E942F
:1001C00071076F5F7040CB0177FF04C088279927C4
:1001D000861B970B0F900F900F900F90C79714F4FA
:1001E00060E070E0CB011F910F91FF90EF90DF90E6
:1001F000CF90BF90AF900895AF92BF92CF92DF9211
:10020000EF92FF920F931F930E94230300D000D020
:10021000AA2797FDA095BA2F2EEF31E040E050E0DD
:10022000EDB7FEB72183328343835483BC01CD01F4
:1002300020E030E040E050E0FFEFEF2EF3E0FF2E53
:10024000012D112DAA24BB2465010E9471079B0179
:10025000AC012F5F30400F900F900F900F90C901AD
:100260001F910F91FF90EF90DF90CF90BF90AF90D4
:1002700008950F931F93CF93DF938EE090E00E9439
:10028000B600EC018FE090E00E94B6008C011C16D5
:100290001D061CF486E0BE010EC0209749F06627BB
:1002A00077276C1B7D0B89E00E94450386E006C022
:1002B00086E060E070E00E94450389E060E070E065
:1002C0000E944503101611064CF48BE0B8010E9401
:1002D00045038AE060E00E94E40316C001151105A1
:1002E00049F066277727601B710B8AE00E9445035F
:1002F0008BE006C08BE060E070E00E9445038AE07E
:1003000060E070E00E94450380E190E00E94FC0004
:10031000853691053CF088E191E0609102014091C1
:10032000030109C08C599F4F44F488E191E060912A
:100330000201409104010E94D90160910501709170
:100340000601882777FD8095982F0E948502DF910E
:10035000CF911F910F910895CF92DF92EF92FF926C
:100360001F93CF93DF937C0111E0C0E0D0E0C62E55
:10037000DD24812F90E08C219D21892B21F0F70134
:10038000808161E003C0F701808160E00E94E403A6
:1003900088E690E00E94DE02110F2196C830D10558
:1003A00041F7DF91CF911F91FF90EF90DF90CF90B9
:1003B0000895EF92FF920F931F93CF93DF93EC0179
:1003C000E62EF42E00E010E08A8161E020E432E4C1
:1003D0004FE050E00E948B04685873418040904089
:1003E00098F388E690E00E94DE02CE016E2D0E9416
:1003F000AC01888160E00E94E4038AE090E00E9402
:10040000DE028A810E943804892BD9F788E690E0C1
:100410000E94DE02CE016F2D0E94AC01888160E057
:100420000E94E4030F5F1F4F0530110569F6DF914D
:10043000CF911F910F91FF90EF900895CF92DF928F
:10044000EF92FF920F931F938C01F62ED72EE42E7E
:10045000C52E862F61E00E94A5038E2D61E00E94CB
:10046000A503F801F282D382E082C1821F910F912D
:10047000FF90EF90DF90CF9008951F920F920FB6EC
:100480000F9211242F933F938F939F93AF93BF931A
:100490008091200190912101A0912201B09123012E
:1004A000309124010196A11DB11D232F2D5F2D3701
:1004B00020F02D570196A11DB11D2093240180939A
:1004C000200190932101A0932201B09323018091F8
:1004D0001C0190911D01A0911E01B0911F01019678
:1004E000A11DB11D80931C0190931D01A0931E01BD
:1004F000B0931F01BF91AF919F918F913F912F9129
:100500000F900FBE0F901F9018959B01AC017FB705
:10051000F89480911C0190911D01A0911E01B09151
:100520001F0166B5A89B05C06F3F19F00196A11D7C
:10053000B11D7FBFBA2FA92F982F8827860F911D35
:10054000A11DB11D62E0880F991FAA1FBB1F6A95EC
:10055000D1F7BC012DC0FFB7F89480911C01909198
:100560001D01A0911E01B0911F01E6B5A89B05C019
:10057000EF3F19F00196A11DB11DFFBFBA2FA92FA2
:10058000982F88278E0F911DA11DB11DE2E0880FC5
:10059000991FAA1FBB1FEA95D1F7861B970B885E90
:1005A0009340C8F2215030404040504068517C4F49
:1005B000211531054105510571F60895019739F06E
:1005C000880F991F880F991F02970197F1F70895D7
:1005D000789484B5826084BD84B5816084BD85B51E
:1005E000826085BD85B5816085BDEEE6F0E08081E5
:1005F00081608083E1E8F0E0108280818260808306
:10060000808181608083E0E8F0E080818160808388
:10061000E1EBF0E0808184608083E0EBF0E08081BA
:1006200081608083EAE7F0E080818460808380815C
:100630008260808380818160808380818068808304
:100640001092C1000895982F8E3008F09E50977038
:10065000809107018295880F880F807C892B809379
:100660007C0080917A00806480937A0080917A0087
:1006700086FDFCCF2091780040917900942F80E096
:1006800030E0282B392BC90108951F93CF93DF93B6
:10069000182FEB0161E00E94A503209709F44AC0DE
:1006A000CF3FD10509F449C0E12FF0E0E255FF4FFB
:1006B00084918330C1F0843028F4813051F082304D
:1006C000B1F50CC0863019F1873049F1843079F5E5
:1006D00014C084B5806884BDC7BD33C084B5806252
:1006E00084BDC8BD2EC0809180008068809380004A
:1006F000D0938900C093880024C0809180008062DC
:1007000080938000D0938B00C0938A001AC08091A0
:10071000B00080688093B000C093B30012C0809195
:10072000B00080628093B000C093B4000AC0C038AB
:10073000D1051CF4812F60E002C0812F61E00E948E
:10074000E403DF91CF911F910895CF93DF93482F5A
:1007500050E0CA0186569F4FFC0134914A575F4FC3
:10076000FA018491882369F190E0880F991FFC01B8
:10077000E859FF4FA591B491FC01EE58FF4FC59188
:10078000D491662351F42FB7F8948C91932F9095C0
:1007900089238C93888189230BC0623061F42FB741
:1007A000F8948C91932F909589238C938881832B37
:1007B00088832FBF06C09FB7F8948C91832B8C93AE
:1007C0009FBFDF91CF910895482F50E0CA01825515
:1007D0009F4FFC012491CA0186569F4FFC019491C2
:1007E0004A575F4FFA013491332309F440C0222362
:1007F00051F1233071F0243028F42130A1F022305F
:1008000011F514C02630B1F02730C1F02430D9F4EE
:1008100004C0809180008F7703C0809180008F7D1D
:100820008093800010C084B58F7702C084B58F7D1F
:1008300084BD09C08091B0008F7703C08091B00063
:100840008F7D8093B000E32FF0E0EE0FFF1FEE5896
:10085000FF4FA591B4912FB7F894662321F48C91A2
:100860009095892302C08C91892B8C932FBF08957A
:10087000682F70E0CB0182559F4FFC012491CB0182
:1008800086569F4FFC0144916A577F4FFB0194911C
:10089000992319F420E030E03CC0222351F12330A9
:1008A00071F0243028F42130A1F0223011F514C069
:1008B0002630B1F02730C1F02430D9F404C0809143
:1008C00080008F7703C0809180008F7D80938000AF
:1008D00010C084B58F7702C084B58F7D84BD09C0F8
:1008E0008091B0008F7703C08091B0008F7D80939E
:1008F000B000892F90E0880F991F84589F4FFC010A
:10090000A591B4918C9120E030E0842311F021E096
:1009100030E0C90108958F929F92AF92BF92CF921B
:10092000DF92EF92FF920F931F93CF93DF93A82F45
:10093000B0E0CD0186569F4FFC018490AA57BF4F6F
:10094000FD018491662311F4992401C0982C6FEF66
:10095000A62E6FEFB62E6FEFC62E6FE0D62EA22218
:10096000B322C422D522682F70E0660F771F645827
:100970007F4FEE24FF248701FB01A591B4910BC0AA
:10098000EA14FB040C051D0509F44EC00894E11C93
:10099000F11C011D111D8C918821891589F30CC052
:1009A000EA14FB040C051D0509F43EC00894E11C83
:1009B000F11C011D111D03C0FB01A591B4918C9187
:1009C0008821891569F720E030E040E050E0FB0124
:1009D000C591D4910FC0DA01C9018E0D9F1DA01FD2
:1009E000B11F8A159B05AC05BD05F1F02F5F3F4F88
:1009F0004F4F5F4F88818821891569F3CA01B9017A
:100A000025E130E040E050E00E94BA079B01AC01D4
:100A1000205F3F4F4F4F5F4F84E056954795379586
:100A200027958A95D1F704C020E030E040E050E0FF
:100A3000B901CA01DF91CF911F910F91FF90EF9003
:100A4000DF90CF90BF90AF909F908F9008950895C2
:100A50001F920F920FB60F9211242F933F934F9333
:100A60008F939F93EF93FF938091C00082FD1DC0F1
:100A70004091C60020916501309166012F5F3F4F84
:100A80002F733070809167019091680128173907A2
:100A900071F0E0916501F0916601EB5DFE4F4083DE
:100AA000309366012093650102C08091C600FF91DA
:100AB000EF919F918F914F913F912F910F900FBE8A
:100AC0000F901F901895E091B901F091BA01E05C88
:100AD000FF4F8191919120813181821B930B8F7304
:100AE0009070892B11F00E94270508951F920F9294
:100AF0000FB60F9211242F933F938F939F93EF93F1
:100B0000FF932091A9013091AA018091AB019091AE
:100B1000AC012817390731F48091C1008F7D809393
:100B2000C10014C0E091AB01F091AC01E759FE4F58
:100B300020818091AB019091AC0101968F739070F0
:100B40009093AC018093AB012093C600FF91EF918D
:100B50009F918F913F912F910F900FBE0F901F90FB
:100B60001895AF92BF92DF92EF92FF920F931F936F
:100B7000CF93DF93EC017A018B01DD24403081EECD
:100B8000580780E0680780E0780711F0DD24D394EF
:100B900091E0A92EB12CEC89FD89DD2069F0C50119
:100BA00008A002C0880F991F0A94E2F7808360E0D2
:100BB00079E08DE390E005C0108260E874E88EE192
:100BC00090E0A80197010E94D90721503040404091
:100BD0005040569547953795279580E12030380746
:100BE00020F0DD2011F0DD24D6CFE889F9893083AB
:100BF000EA89FB89208319A2EE89FF89408121E0DF
:100C000030E0C9010C8C02C0880F991F0A94E2F7EA
:100C1000482B4083EE89FF894081C9010D8C02C0B9
:100C2000880F991F0A94E2F7482B4083EE89FF89C9
:100C30004081C9010E8C02C0880F991F0A94E2F707
:100C4000482B4083EE89FF8980810F8C02C0220FE0
:100C5000331F0A94E2F7209528232083DF91CF9158
:100C60001F910F91FF90EF90DF90BF90AF9008958C
:100C7000DC011C96ED91FC911D97E05CFF4F2191EA
:100C8000319180819181281B390B2F733070C901FC
:100C90000895DC011C96ED91FC911D97E05CFF4FDF
:100CA00020813181E054F040DF01AE5BBF4F8D9178
:100CB0009C9111972817390719F42FEF3FEF07C0C0
:100CC0008D919C91E80FF91F8081282F30E0C90198
:100CD0000895DC011C96ED91FC911D97E05CFF4F9F
:100CE00020813181E054F040DF01AE5BBF4F8D9138
:100CF0009C9111972817390719F42FEF3FEF10C077
:100D00008D919C911197E80FF91F20818D919C91F5
:100D1000119701968F73907011969C938E9330E08B
:100D2000C9010895DC0191968C919197882339F03F
:100D30005496ED91FC915597808186FFF9CF91965D
:100D40001C920895CF93DF93EC01EE85FF85E05C64
:100D5000FF4F20813181E054F0402F5F3F4F2F73D0
:100D60003070DF01AE5BBF4F8D919C9111972817BA
:100D70003907D1F3E05CFF4F80819181E054F0406E
:100D8000E80FF91F6083EE85FF85E05CFF4F31833C
:100D90002083EE89FF89208181E090E00F8C02C0E2
:100DA000880F991F0A94E2F7282B208381E089A3FA
:100DB000EC89FD8980818064808381E090E0DF910F
:100DC000CF9108951092B0011092AF0188EE93E098
:100DD000A0E0B0E08093B1019093B201A093B30181
:100DE000B093B4018CE091E09093AE018093AD019B
:100DF00085E291E09093BA018093B90189E691E090
:100E00009093BC018093BB0185EC90E09093BE0170
:100E10008093BD0184EC90E09093C0018093BF016A
:100E200080EC90E09093C2018093C10181EC90E04E
:100E30009093C4018093C30182EC90E09093C6012B
:100E40008093C50186EC90E09093C8018093C70120
:100E500084E08093C90183E08093CA0187E0809396
:100E6000CB0185E08093CC0181E08093CD01089592
:100E7000CF93DF930E94E8020E949600C3E6D5E07C
:100E80000E9439012097E1F30E946305F9CFCF92C8
:100E9000DF92EF92FF920F931F93CF93DF937C012A
:100EA0006B018A01C0E0D0E00FC0D6016D916D01E9
:100EB000D701ED91FC910190F081E02DC7010995DA
:100EC000C80FD91F015010400115110571F7CE014F
:100ED000DF91CF911F910F91FF90EF90DF90CF9016
:100EE00008952F923F924F925F926F927F928F92CE
:100EF0009F92AF92BF92CF92DF92EF92FF920F93A9
:100F00001F93DF93CF93CDB7DEB73B014C0119019F
:100F10002A016D897E898F89988D6A197B098C09D0
:100F20009D09621A730A840A950AA40193010E941A
:100F3000BA07E218F30804091509A80197010E94ED
:100F4000FB072A0D3B1D4C1D5D1DB901CA01CF9148
:100F5000DF911F910F91FF90EF90DF90CF90BF90A6
:100F6000AF909F908F907F906F905F904F903F9049
:100F70002F900895629FD001739FF001829FE00D32
:100F8000F11D649FE00DF11D929FF00D839FF00D08
:100F9000749FF00D659FF00D9927729FB00DE11DB4
:100FA000F91F639FB00DE11DF91FBD01CF01112491
:100FB0000895A1E21A2EAA1BBB1BFD010DC0AA1F9A
:100FC000BB1FEE1FFF1FA217B307E407F50720F0B2
:100FD000A21BB30BE40BF50B661F771F881F991F2D
:100FE0001A9469F760957095809590959B01AC0176
:100FF000BD01CF01089597FB092E05260ED057FDA0
:1010000004D0D7DF0AD0001C38F4509540953095B5
:1010100021953F4F4F4F5F4F0895F6F7909580957C
:10102000709561957F4F8F4F9F4F0895EE0FFF1F73
:0C1030000590F491E02D0994F894FFCF96
:10103C00680028081814000100000000A2064707E9
:08104C00380669064906920608
:00000001FF
